:020000040800F2
:1000000048080020C912000801070008030700087B
:10001000070700080B0700080F0700080000000092
:1000200000000000000000000000000013070008AE
:10003000150700080000000017070008190700084E
:10004000E3120008E3120008E3120008E3120008BC
:10005000E3120008E3120008E3120008E3120008AC
:10006000E3120008E3120008E3120008E31200089C
:10007000E3120008E3120008E3120008E31200088C
:10008000E3120008E3120008E3120008E31200087C
:10009000E3120008E3120008E3120008E31200086C
:1000A000E3120008E3120008E3120008E31200085C
:1000B000770D0008E31200085F0D0008E312000846
:1000C000E3120008E3120008E3120008E31200083C
:1000D000E31200087311000805120008E31200087B
:1000E000E3120008E3120008E3120008E31200081C
:1000F000E3120008E3120008E3120008E31200080C
:10010000E3120008E3120008BF0A0008E312000827
:10011000E3120008E3120008E3120008E3120008EB
:10012000E3120008E3120008E3120008E3120008DB
:1001300000F002F800F03FF80AA090E8000C8244BA
:100140008344AAF10107DA4501D100F034F8AFF297
:10015000090EBAE80F0013F0010F18BFFB1A43F0A5
:10016000010318472031000040310000103A24BF3D
:1001700078C878C1FAD8520724BF30C830C144BF0C
:1001800004680C607047000000230024002500264E
:10019000103A28BF78C1FBD8520728BF30C148BFEA
:1001A0000B607047732902F03086002070471FB53E
:1001B0001FBD10B510BD02F05BFE1146FFF7F7FF43
:1001C00000F064F802F079FE03B4FFF7F2FF03BC1D
:1001D00000F024FF2DE9F0430446079D00BFA2EB89
:1001E000040C4FF0C8080CFB08F6A3EB010C0CFB49
:1001F00008F700201AE000FB06FC4FF47A789CFB1D
:10020000F8FCA44400EB0508DFF8C09449F828C0C6
:1002100000FB07FC4FF47A789CFBF8FC8C4400EB65
:100220000508DFF8AC9449F828C0401C0528E2DB3B
:10023000BDE8F0832DE9F84F04460D4616461F46EB
:10024000DDE90CABDDE90A8900203B463246294650
:1002500000902046FFF7BEFF05204B464246394638
:1002600000903046FFF7B6FF0A205B4652464946EB
:1002700000904046FFF7AEFF0F202B46224659461E
:1002800000905046FFF7A6FFBDE8F88F94B078269F
:1002900078277820139012901190109083460F9039
:1002A0000E900D908146824601200990079000F043
:1002B0004BFE4FF4A06001F027F84FF4E13000F05E
:1002C000BBFE4FF4165000F003FF00F017FB00F0E8
:1002D0003BFB00F0ABFD40F2CF2140F2E73000F0F5
:1002E000C1FB4946504600F088FDEDE1F948007831
:1002F00001280DD10998012807D100F04AFB80465A
:10030000B8F1000F01D0CDF828800020F149087025
:100310000A98062820D1079801281DD100200790AF
:10032000099001200890EC49086040F25110EB4917
:1003300008604FF48C70EA4908604FF4FA7000F0DE
:1003400040FE78200090019002900346024601464C
:100350000390FFF76FFF00250A98072801D10020BE
:100360000A90E0480078012860D1089801285AD105
:10037000D64850F82590D64850F825A00698002871
:100380003DD000200690A6EB09000A2804DCA6EB6D
:10039000090010F10A0F12DA3146D34800F08AFD45
:1003A000CF490968081ACE49086000F005FDCC481D
:1003B000006800F060FD00200C900B9001E001202F
:1003C0000C90A7EB0A000A2804DCA7EB0A0010F146
:1003D0000A0F12DA3946C54800F06CFDBF490968BA
:1003E000081ABE49086000F0E7FCBC48006800F04D
:1003F0003FFD00200C900B9001E001200B900C9829
:10040000012806D10B98012803D100200C900B90F5
:100410006D1C142D07D100250120079009900020A4
:100420000890AD4908600020AE490870B0480078D7
:10043000012802D10020AE490870AE48007801289A
:100440007DD100240DE0AC48005D522807D0AA48B9
:10045000005D422803D0A848005D542800D102E086
:10046000641C322CEFDB00BFA348005D522833D15F
:100470009948006801282FD1641C9F48005D5828C6
:1004800011D19D49601C085C3038642148439A4A68
:10049000A11C515C303901EB810100EB4101E01CF2
:1004A000105C30380E18241D9348005D592811D176
:1004B0009149601C085C3038642148438E4AA11C75
:1004C000515C303901EB810100EB4101E01C105C13
:1004D00030380F18012006908748005D42287DD1F2
:1004E0007D48001D0068012879D1641C8248005DA8
:1004F000582812D18049601C085C30386421484378
:100500007D4AA11C515C303901EB810100EB4101B6
:10051000E01C105C303808441390241D7648005DC0
:10052000592814D17449601C085C30386421484350
:10053000714AA11C515C303901EB810100E0C3E03C
:1005400000EB4101E01C105C303808441290241D7F
:100550006948005D582812D16749601C085C303832
:1005600064214843644AA11C515C303901EB81018C
:1005700000EB4101E01C105C303808441190241D50
:100580005D48005D592812D15B49601C085C303819
:1005900064214843584AA11C515C303901EB810168
:1005A00000EB4101E01C105C303808441090241D21
:1005B0005148005D582815D14F49601C085C3038FF
:1005C000642148434C4AA11C515C303901EB810144
:1005D00000EB4101E01C105C303801E071E068E0A4
:1005E00001EB000B241D4448005D592812D14249FB
:1005F000601C085C3038642148433F4AA11C515CB0
:10060000303901EB810100EB4101E01C105C303816
:1006100008440F90241D3848005D582812D13649EF
:10062000601C085C303864214843334AA11C515C8B
:10063000303901EB810100EB4101E01C105C3038E6
:1006400008440E90241D2C48005D592812D12A49D7
:10065000601C085C303864214843274AA11C515C67
:10066000303901EB810100EB4101E01C105C3038B6
:1006700008440D900DA807C8CDE900B2CDE90210DD
:10068000DDE91032DDE91210FFF7D4FD00200590FE
:1006900002E00598401C059005981428F9DB01201C
:1006A000099000200C49091D0860012007900020D6
:1006B0000A901148005D542803D10F490FA002F0A1
:1006C00025FB00200B49087010E6000050000020B8
:1006D000A000002026000020A08122421C00002053
:1006E000200000202400002008010020F00000204D
:1006F000250000203000002020010020257300008C
:10070000704700BFFEE700BFFEE700BFFEE700BF87
:10071000FEE7704770477047704700000CB5002037
:10072000019000906C48006840F480306A4908608D
:1007300000BF6948006800F4003000900198401C38
:100740000190009818B90198B0F5A06FF1D16248F6
:10075000006800F4003010B10120009001E000209A
:1007600000900098012843D15C48006840F01000D8
:100770005A4908600846006820F0030008600846EF
:10078000006840F0020008605348406852494860E1
:100790000846406848600846406840F48060486009
:1007A0000846406820F47C1048600846406840F4E1
:1007B000E81048600846006840F08070086000BF9C
:1007C0004548006800F000700028F9D042484068B1
:1007D00020F00300404948600846406840F00200AD
:1007E000486000BF3C48406800F00C000828F9D180
:1007F0000CBD10B5FFF792FF10BD10B5364800686C
:1008000040F0010034490860084640683449084017
:100810003149486008460068324908402E4908605E
:100820000846006820F4802008600846406820F4EC
:10083000FE0048604FF41F008860FFF7DAFF4FF0BA
:1008400000602949086010BD10B500210020002279
:10085000214B5B6803F00C0121B1042906D0082963
:1008600028D107E0214B224C236027E01F4B204C6E
:10087000236023E0184B5B6803F47010164B5B6831
:1008800003F48032022303EB904022B9194B434317
:10089000174C23600DE0104B5B6803F4003323B169
:1008A000144B4343124C236003E0104B4343104C62
:1008B000236003E00D4B0E4C236000BF00BF064BCE
:1008C0005B68C3F303130C4CE15C094B1B68CB4022
:1008D000074C236010BD00000010024000200240C1
:1008E0000000FFF8FFFFF6FE08ED00E000127A00BE
:1008F0000000002000093D000400002008B501218F
:10090000482001F08BF82020ADF8000010208DF871
:10091000030003208DF802006946094800F0C2FD7B
:100920002021074800F06BFE2020ADF8000069464A
:10093000044800F0B7FD2021024800F060FE08BD29
:10094000000C01400018014008B50121542001F0BD
:1009500065F81020ADF8000028208DF803006946E6
:100960003B4800F09FFD0120ADF8000028208DF8E5
:1009700003006946374800F095FD4FF4E070ADF88C
:10098000000048208DF803006946334800F08AFDD6
:1009900008BD10B53148007800283CD010212C4803
:1009A00000F013FE012810D001212A4800F00DFEAE
:1009B00001280AD02A48006838B12948001D00687B
:1009C00018B127480830006828BB0A2000F0F9FA5F
:1009D00000202249087010211D4800F0F6FD012872
:1009E00000D110BD01211B4800F0EFFD012801D10D
:1009F0000420F6E71A48006808B90620F1E718480D
:100A0000001D006808B90720EBE7154808300068AA
:100A1000D8B90820E5E710210D4800F0D6FDA0B9AF
:100A200001210C4800F0D1FD78B90D48006801287B
:100A30000BD10B48001D0068012806D1084808307A
:100A40000068012801D1054908700020C9E70000AD
:100A5000001801400008014000100140140000206F
:100A6000180122427FB505460C460121082000F0FE
:100A7000E2FFADF80850ADF804400020ADF80A00E0
:100A8000ADF8060001A9214801F000F90122114644
:100A90001E4801F072FC32208DF8000000208DF815
:100AA000010003208DF8020001208DF80300684644
:100AB00000F02FFC0121154801F044FC7FBD10B56A
:100AC0000121124801F007FFF8B101210F4801F0A0
:100AD00013FF0F480068401C0D4908600846006875
:100AE000062190FBF1F201FB120020B90120094917
:100AF00008700949087006480068322805D10020AE
:100B00000349086001200549087010BD000C004031
:100B100018000020260000202400002025000020CE
:100B200030B589B005460C460121052000F076FF5E
:100B30000121022000F07FFF18208DF82300C02043
:100B4000ADF8200003208DF8220008A91A4800F013
:100B5000A9FCADF81850ADF814400020ADF81A000B
:100B6000ADF8160005A9154801F090F86020ADF821
:100B700004000120ADF806000020ADF80C0001A92A
:100B80000E4801F0C0F801A90C4801F0FEF8082158
:100B90000A4801F007FD0821084801F00CFD012179
:100BA000064801F0CFFB09B030BD044B3433188048
:100BB0001B1D198070470000000801400004004020
:100BC00000B587B00121084600F035FF01210D2056
:100BD00000F024FF01216E4800F035FD01216D4831
:100BE00000F031FD4FF40040ADF8000004208DF816
:100BF00003006946684800F055FC0820ADF8000085
:100C000004208DF803006946644800F04BFC04A8FA
:100C100001F068FB0020ADF810004FF6FF70ADF852
:100C200014000020ADF81600ADF8120004A94FF032
:100C3000804001F02BF800231A4603214FF080403A
:100C400001F033FC01A801F060FB0A20ADF80C00B4
:100C500001A9400701F0ADFA0121880701F038FE33
:100C600001221146900701F088FB00214FF08040DF
:100C700001F0FCFD0121880701F064FB07B000BD15
:100C800000B587B00121084600F0C8FE012104200C
:100C900000F0D1FE0121202000F0C0FE0121080358
:100CA00000F0D1FC4FF44050ADF8000004208DF866
:100CB000030069463A4800F0F5FB04A801F012FB76
:100CC0000020ADF810004FF6FF70ADF814000020C2
:100CD000ADF81600ADF8120004A9324800F0D6FFB6
:100CE00000231A4603212F4801F0DFFB01A801F081
:100CF0000CFB0A20ADF80C0001A92A4801F059FAB2
:100D00000121284801F0E4FD01221146254801F0A7
:100D100034FB0021234801F0A9FD0121214801F005
:100D200011FB07B000BD0146022902D0042912D1EF
:100D300008E04FF08042928C10B200224FF08043C6
:100D40009A840AE0174A2432128810B20022154B06
:100D500024331A8001E0002000BF00BF7047114813
:100D6000103000880F481030008820F001000D4935
:100D70001031088070474FF08040008A4FF080406B
:100D8000008A20F001004FF0804108827047000087
:100D9000000118000002300000080140000C014072
:100DA000001401400008004070B504460D46294675
:100DB0002046FFF7FAFE70BD31480068B0F51B7F92
:100DC00003DD4FF41B702E4908602D48006882280F
:100DD00002DA82202A4908602A480068B0F51B7FA1
:100DE00003DD4FF41B7027490860264800688228FD
:100DF00002DA8220234908607047234AD060234AE0
:100E0000D160704708B50121202000F007FE4FF4A3
:100E10004070ADF8000010208DF8030003208DF81D
:100E2000020069461A4800F03DFB08BD10B5FFF707
:100E3000E9FF40F21F1141F28730FFF771FE1248BF
:100E400000F02EF8114800F02BF878210846FFF743
:100E5000D4FFFFF7B1FF0B48016809480068FFF7AE
:100E6000A3FF00200B4908600B49C1F8A40110BD85
:100E70000A4A10807047094A121D1080704700000E
:100E80001C00002020000020F000002008010020AD
:100E900000140140A081224200802242340400401C
:100EA000264901602649416081600021C1600161DD
:100EB000416170472DE9FC5F04460E46E068851BE2
:100EC0006069284460611F4960690968884203DDE0
:100ED0001C480068606109E01A4960690968494274
:100EE000884203DA17480068404260612169681A45
:100EF00002F06EF88246216802F082F8814660694D
:100F000002F066F80090616802F07AF8824628469E
:100F100002F05EF80090216802F072F883465146B4
:100F200001F0D8FF4946019001F0D4FF804602F05D
:100F300033F8074625613846BDE8FC9F0AD7A33C35
:100F40000AD7233C2800002010B56FF0040000F001
:100F50002AFA2E4800682E49B0FBF1F02D4908709E
:100F60000846007800EB4001C1EBC0104FF6FF715E
:100F700001EAC0002849088010BD0146254A1278C0
:100F80004A434FF0E0235A6100229A611A461269DF
:100F900042F001021A6100BF4FF0E022106900F038
:100FA00001021AB100F48032002AF5D04FF0E0229D
:100FB000126922F001024FF0E0231A6100229A61C7
:100FC00070470146144A12884A434FF0E0235A61A1
:100FD00000229A611A46126942F001021A6100BFAA
:100FE0004FF0E022106900F001021AB100F48032E3
:100FF000002AF5D04FF0E022126922F001024FF0F2
:10100000E0231A6100229A6170470000000000206E
:1010100000127A002C0000202E00002000BF704734
:1010200000BFA14A128802F04002002AF9D0C2B2E1
:101030009D4B1B1D1A80704710B586B004460121D8
:1010400044F2040000F0EAFC4FF40070ADF8140024
:1010500003208DF8160018208DF8170005A9934875
:1010600000F020FA4FF48060ADF8140004208DF8F1
:10107000170005A98D4800F015FA25208DF800000D
:1010800003208DF801008DF8020001208DF8030087
:10109000684600F03EF901940020ADF80800ADF874
:1010A0000A00ADF80C00ADF810000C20ADF80E00F1
:1010B00001A97D4801F067FC012240F225517A48E0
:1010C00001F0F9FC0121784801F0E9FC06B010BDFF
:1010D00010B586B004460121042000F09FFC0121D8
:1010E000480400F0A8FC0420ADF8140003208DF89B
:1010F000160018208DF8170005A96C4800F0D2F9E9
:101100000820ADF8140004208DF8170005A96748E1
:1011100000F0C8F901940020ADF80800ADF80A000D
:10112000ADF80C00ADF810000C20ADF80E0001A9D0
:101130005F4801F028FC01215D4801F0B0FC40212E
:101140005B4801F094FD012240F22551584801F01E
:10115000B2FC26208DF8000003208DF801008DF8E8
:10116000020001208DF80300684600F0D2F806B0B6
:1011700010BD10B540F225514B4801F081FD00280B
:101180003FD0494801F0FCFCC4B24A48008800F452
:10119000004058BB4748008800F4804060B14B2CA9
:1011A00003D000204349088020E04248008840F4F2
:1011B00000404049088019E0442C06D13D48008891
:1011C00040F480403B49088010E03A480088C0F372
:1011D0000D0039490C5437480088401C35490880B7
:1011E00008460088C72801DD0020088031480088B3
:1011F00000F4004028B101203049087000202D493A
:10120000088010BD10B540F22551294801F038FD85
:10121000002847D0264801F0B3FCC4B22848008813
:1012200000F4004058BB2648008800F4804060B1BC
:101230004B2C03D000202249088020E02048008861
:1012400040F400401E49088019E0442C06D11C4897
:10125000008840F480401A49088010E0184800884F
:10126000C0F30D0014490C5415480088401C144963
:10127000088008460088C72801DD00200880104843
:10128000008800F4004068B101200C49087000207B
:101290000B4908800B48006808B9012000E00020D5
:1012A0000849086010BD00000038014000080140F6
:1012B00000440040380000202001002030000020C1
:1012C0003A0000209401234209488047094800471A
:1012D000FEE7FEE7FEE7FEE7FEE7FEE7FEE7FEE7E6
:1012E000FEE7FEE704480549054A064B7047000043
:1012F000FB070008310100084802002048080020D0
:10130000480400204804002031490143314A11605B
:10131000704770B5002100230F22C47804B32D4C10
:10132000246804F4E064C4F5E064210AC1F1040314
:10133000CA40447804FA03F1847814402143090137
:10134000254C0678A155047804F01F050124AC4013
:1013500005786D11AD0005F1E025C5F8004109E003
:10136000047804F01F050124AC401C4D067876116A
:1013700045F8264070BD1A4A0A400243154B1B1F10
:101380001A60704739B1134A121D12680243114B9B
:101390001B1D1A6006E00F4A121D126882430D4B96
:1013A0001B1D1A607047042808D14FF0E02109691D
:1013B00041F004014FF0E022116107E04FF0E0211D
:1013C000096921F004014FF0E0221161704700002B
:1013D0000000FA050CED00E000E400E080E100E030
:1013E00080FFFF1F10B50446CC48844208D101217C
:1013F000042000F02DFB0021042000F029FB46E032
:10140000C748844208D10121082000F021FB0021B7
:10141000082000F01DFB3AE0C248844208D10121B7
:10142000102000F015FB0021102000F011FB2EE031
:10143000BD48844208D10121202000F009FB002191
:10144000202000F005FB22E0B848844208D10121A9
:10145000402000F0FDFA0021402000F0F9FA16E0EB
:10146000B348844208D10121802000F0F1FA002124
:10147000802000F0EDFA0AE0AE48844207D1012155
:10148000801500F0E5FA0021A01500F0E1FA10BD8A
:1014900010B50121084600F0DBFA0021012000F020
:1014A000D7FA10BD2DE9F0410246002500260020A4
:1014B00000230024002791F803C00CF00F0591F8D9
:1014C00003C00CF0100CBCF1000F03D091F802C067
:1014D0004CEA050591F800C0BCF1000F31D014684A
:1014E00000202BE04FF0010C0CFA00F3B1F800C023
:1014F0000CEA03069E4220D183004FF00F0C0CFA39
:1015000003F7BC4305FA03FC4CEA040491F803C05A
:10151000BCF1280F06D14FF0010C0CFA00FCC2F808
:1015200014C00AE091F803C0BCF1480F05D14FF098
:10153000010C0CFA00FCC2F810C0401C0828D1D3E2
:101540001460B1F800C0BCF1FF0F34DD5468002016
:101550002EE000F1080C4FF0010808FA0CF3B1F886
:1015600000C00CEA03069E4221D183004FF00F0C0D
:101570000CFA03F7BC4305FA03FC4CEA040491F8A7
:1015800003C0BCF1280F05D100F1080C08FA0CF8D3
:10159000C2F8148091F803C0BCF1480F07D100F1E4
:1015A000080C4FF0010808FA0CF8C2F81080401C33
:1015B0000828CED35460BDE8F0814FF6FF7101805A
:1015C000022181700421C170704702460020936897
:1015D0000B400BB1012000E00020704701468868F5
:1015E00080B2704702460020D3680B400BB1012047
:1015F00000E0002070470146C86880B27047016172
:101600007047416170470AB1016100E04161704774
:10161000C16070474FF480320A4382618161826108
:1016200082698269704702460020434B18684FF672
:101630008073184040EA021008433F4B186070471F
:101640003E49C8617047F0B50A46002300240021D6
:10165000002500F00046B6F1004F02D1364EF16988
:1016600001E0354E7168C0F3034583B200F44016C3
:10167000B6F5401F08D121F070612F4E766826F034
:1016800070662D4F7E6012E000F48016B6F5801F64
:1016900006D1032606FA05F4A14341F0706106E085
:1016A000460D360103FA06F6B14341F0706122B1EE
:1016B000460D360103FA06F6314300F00046B6F156
:1016C000004F02D11C4EF16101E01B4E7160F0BD74
:1016D00030B500228B071C0F0F2303FA04F2164BC0
:1016E00008338C1053F824309343134C08348D1076
:1016F00044F8253023468C1053F824308C07240FEF
:1017000000FA04F423430C4C08348D1044F82530BF
:1017100030BD0A49DC310860704700000008014014
:10172000000C01400010014000140140001801406D
:10173000001C014000200140000001400000204248
:10174000DF48006840F00100DD4908600846406855
:10175000DC490840DA49486008460068DA49084030
:10176000D74908600846006820F4802008600846D1
:10177000406820F4FE0048604FF41F008860704706
:10178000CF49096821F48031CD4A116011460968BA
:1017900021F480211160B0F5803F03D0B0F5802F97
:1017A0000ED106E0C649096841F48031C44A11608F
:1017B00007E0C349096841F4A021C14A116000E073
:1017C00000BF00BF704710B5014600220023002073
:1017D0004A11012A02D1BA4C236806E0022A02D13A
:1017E000B74C236A01E0B64C636A01F01F02012482
:1017F00094401C400CB1012000E0002010BD38B521
:10180000002000900024002500BF3120FFF7DBFFFF
:1018100005460098401C00900098B0F5A06F01D0DC
:10182000002DF2D03120FFF7CEFF08B1012400E0F7
:101830000024204638BD01460020A14A106820F04F
:10184000F80040EAC10010607047A0490860704786
:10185000024600209A4B586820F47C1042EA0103AB
:101860001843974B5860704798490866704701467F
:101870000020934A506820F00300084350607047EE
:101880008F48406800F00C007047014600208C4AE9
:10189000506820F0F0000843506070470146002077
:1018A000874A506820F4E060084350607047014662
:1018B0000020834A506820F4605040EAC100506024
:1018C000704729B17E4A527A02437D4B5A7204E036
:1018D0007B4A527A82437A4B5A7270477B49D8319D
:1018E0000860704701460020754A506820F4404067
:1018F0000843506070470021714A20321170704ACD
:1019000082F82010012802D004280AD104E0012125
:101910006B4A2032117005E00521694A20321170AE
:1019200000E000BF00BF7047694908607047644924
:10193000096A0143624A1162704765494439086087
:10194000704730B500210022002400235C4D6D68F3
:1019500005F00C0121B1042905D0082923D105E0A7
:101960005C4D056022E05B4D05601FE0544D6D68E5
:1019700005F47012524D6D6805F48034022505EBB4
:1019800092421CB9544D554305600BE04C4D6D68B7
:1019900005F400351DB1504D5543056002E04D4D35
:1019A0005543056002E04B4D056000BF00BF444D4C
:1019B0006D6805F0F0010909484D6B5C0568DD4074
:1019C00045603F4D6D6805F4E061090A434D6B5C6D
:1019D0004568DD4085603A4D6D6805F46051C90A7F
:1019E0003E4D6B5C4568DD40C560354D6D6805F466
:1019F0004041890B3A4D6B5CC568B5FBF3F5056159
:101A000030BD29B12E4A526902432D4B5A6104E080
:101A10002B4A526982432A4B5A61704729B1284A9E
:101A200092690243264B9A6104E0254A92698243F7
:101A3000234B9A61704729B1214AD2690243204B56
:101A4000DA6104E01E4AD26982431D4BDA617047B5
:101A500029B11B4AD2680243194BDA6004E0184AE4
:101A6000D2688243164BDA60704729B1144A126972
:101A70000243134B1A6104E0114A12698243104B6E
:101A80001A61704712494039086070470F49C864AD
:101A900070470B49C87170470948406A40F0807030
:101AA00007494862704701460020054A92680A408B
:101AB0000AB1012000E00020704701498872704798
:101AC000001002400000FFF8FFFFF6FE0000424257
:101AD0008004424200127A0000093D003C000020D0
:101AE0004C00002010B50446FE48844208D1012174
:101AF000C014FFF7ADFF0021E014FFF7A9FFC4E019
:101B0000B4F1804F08D101210846FFF7AEFF002154
:101B10000120FFF7AAFFB8E0F348844208D1012171
:101B20000220FFF7A2FF00210220FFF79EFFACE09A
:101B3000EE48844208D101210420FFF796FF0021DE
:101B40000420FFF792FFA0E0E948844208D1012178
:101B50000820FFF78AFF00210820FFF786FF94E0A6
:101B6000E448844208D101211020FFF77EFF0021C4
:101B70001020FFF77AFF88E0DF48844208D1012176
:101B80002020FFF772FF00212020FFF76EFF7CE08E
:101B9000DA48844208D101214014FFF759FF00219F
:101BA0006014FFF755FF70E0D548844209D1012148
:101BB000C804FFF74DFF00214FF40020FFF748FF56
:101BC00063E0D048844209D101210805FFF740FFB6
:101BD00000214FF48010FFF73BFF56E0CA488442D3
:101BE00009D101214805FFF733FF00214FF4001010
:101BF000FFF72EFF49E0C548844208D1012140206B
:101C0000FFF733FF00214020FFF72FFF3DE0C048E2
:101C1000844208D101218020FFF727FF0021802086
:101C2000FFF723FF31E0BB48844208D10121801532
:101C3000FFF71BFF0021A015FFF717FF25E0B648AF
:101C4000844209D101210804FFF702FF00214FF46B
:101C50008030FFF7FDFE18E0B048844209D1012131
:101C60004804FFF7F5FE00214FF40030FFF7F0FEC7
:101C70000BE0AB48844208D101218804FFF7E8FE5D
:101C800000214FF48020FFF7E3FE10BD0022028800
:101C9000944B98420ED0994B98420BD0B0F1804FA4
:101CA00008D0914B984205D0904B984202D0904B6F
:101CB000984204D14FF68F731A404B881A438D4BCC
:101CC000984207D08C4B984204D04FF6FF431A40FD
:101CD000CB881A4302808B8883850B880385814BD0
:101CE00098420BD0854B984208D08B4B984205D038
:101CF0008A4B984202D08A4B984201D10B7A0386D4
:101D000001238382704770B5002400220023058CD4
:101D10004FF6FE7635400584028C8388048B4FF69F
:101D20008F752C40B51E2C400D882C43751E2A4003
:101D30000D892A434D882A436A4DA8420BD06F4D26
:101D4000A84208D0744DA84205D0744DA84202D0D4
:101D5000734DA84213D14FF6F7752A404D892A4397
:101D60004FF6FB752A408D882A434FF6FF652B40BE
:101D70004FF6FF552B408D892B43CD892B43838014
:101D80000483CD888586028470BD70B5002400224E
:101D90000023058C4FF6EF7635400584028C83884E
:101DA000048B48F6FF752C404FF6FF452C400D88FC
:101DB0004FF6FF7606EA05252C434FF6DF752A40DD
:101DC0000D8906EA05152A434D8806EA05152A43BA
:101DD000444DA84202D0494DA8421DD14FF67F750F
:101DE0002A404D894FF6FF7606EA05152A434FF63D
:101DF000BF752A408D8806EA05152A434FF6FF3540
:101E00002B404FF2FF752B408D8906EA85052B4349
:101E1000CD8906EA85052B4383800483CD88058719
:101E2000028470BD70B5002400220023058C4FF69B
:101E3000FF6635400584028C8388848B4FF68F754E
:101E40002C404FF6FC752C400D882C434FF6FF5567
:101E50002A400D894FF6FF7606EA05252A434D886C
:101E600006EA05252A431F4DA84202D0234DA84269
:101E70001DD14FF2FF752A404D894FF6FF7606EAD5
:101E800005252A434FF6FF352A408D8806EA0525A9
:101E90002A434EF6FF752B404DF6FF752B408D897A
:101EA00006EA05152B43CD8906EA05152B438380E9
:101EB0008483CD888587028470BD70B5002200239D
:101EC0000024058C4EF6FF7635400584038C84880B
:101ED000828B48F6FF752A404FF6FF452A400D8851
:101EE00020E00000002C01400004004000080040F9
:101EF000000C00400010004000140040003401407D
:101F0000004C0140005001400054014000180040C6
:101F1000001C0040002000400040014000440140FF
:101F2000004801404FF6FF7606EA05252A434DF6A4
:101F3000FF752B400D8906EA05352B434D8806EACF
:101F400005352B43FA4DA84202D0FA4DA84208D1DC
:101F50004BF6FF752C408D894FF6FF7606EA851506
:101F60002C4384808283CD88A0F84050038470BDC8
:101F7000828B4FF2FF331A408283828B4FF6FF73BE
:101F800003EA01231A4382837047F0B50C461546D5
:101F9000002200210026078C4EF6FF7C07EA0C0782
:101FA0000784828B018C4FF6FF7707EA043640F6F0
:101FB000FF473A404FF6FF7707EA05273A434FF6C7
:101FC000FF7707EA03373A43D94FB8420ED0D94FCB
:101FD000B8420BD0B0F1804F08D0D74FB84205D0EF
:101FE000D64FB84202D0D64FB84206D14DF6FF7751
:101FF000394046F48057394305E047F6FF573940EA
:1020000044F48057394382830184F0BD828B4FF6BC
:10201000F3731A408283828B0A4382837047F0B540
:102020000C461546002200210026078C4FF6FF6C57
:1020300007EA0C070784828B018C4FF6FF7707EACB
:1020400004264FF60C773A404FF6FF7707EA03175E
:102050002F433A43B64FB8420ED0B64FB8420BD0DA
:10206000B0F1804F08D0B44FB84205D0B34FB8425A
:1020700002D0B34FB84206D14FF6FF57394046F46D
:102080008077394305E04FF2FF57394044F48077B9
:10209000394382830184F0BD028B4FF2FF331A4033
:1020A0000283028B4FF6FF7303EA01231A43028374
:1020B0007047F0B50C461546002200210026078C1B
:1020C0004FF6EF7C07EA0C070784028B018C4FF672
:1020D000FF7707EA041640F6FF473A404FF6FF77CE
:1020E00007EA03373A434FF6FF7707EA05273A43F3
:1020F0008F4FB8420ED08F4FB8420BD0B0F1804F07
:1021000008D08D4FB84205D08C4FB84202D08C4FCA
:10211000B84206D14FF6DF77394046F01007394311
:1021200005E04FF65F77394044F0100739430283EA
:102130000184F0BD028B4FF6F3731A400283028BC9
:102140000A4302837047F0B50C4615460022002171
:10215000068C4FF6FE773E400684028B018C4FF6CC
:102160000C7632407E1C06EA03162E433243704E34
:10217000B0420ED06F4EB0420BD0B0F1804F08D0BD
:102180006D4EB04205D06D4EB04202D06C4EB042A2
:1021900006D14FF6FD76314044F00106314305E0AB
:1021A0004FF6F576314044F0010631430283018455
:1021B000F0BD70B505460C465D4885420ED05D48C1
:1021C00085420BD0B5F1804F08D05B48854205D0E1
:1021D0005A48854202D05A48854200D100E000BFEB
:1021E000208850B92389A28861882846FFF7ABFF71
:1021F000E1882846FFF79EFF25E0208804280AD1C1
:102200002389A28861882846FFF753FFE188284682
:10221000FFF742FF17E0208808280AD12389A28807
:1022200061882846FFF7FBFEE1882846FFF7EEFEAF
:1022300009E02389A28861882846FFF7A6FEE18885
:102240002846FFF795FE70BD2DE9F04105460C4686
:1022500000260127608808B9022600E00026A08831
:10226000012801D1022700E001272088A0B9238995
:10227000A28861882846FFF766FFE1882846FFF7B5
:1022800059FF23893A4631462846FFF712FFE18875
:102290002846FFF701FF13E02389A28861882846BA
:1022A000FFF707FFE1882846FFF7F6FE23893A4645
:1022B00031462846FFF747FFE1882846FFF73AFFF7
:1022C000BDE8F0810A884B881A438B881A43CB8873
:1022D0001A430B891A434B891A438B891A43A0F876
:1022E000442070474FF6FF71818000210180C1803A
:1022F0004180017270470021018041808180C1804E
:10230000018141818181C18170470021018041802B
:10231000012181800021C18001817047002101805D
:1023200041808180C18001814181818170470000AD
:10233000002C01400034014000040040000800402F
:10234000000C004021B1028842F00102028004E04A
:1023500002884FF6FE731A400280704731B1B0F820
:10236000442042F40042A0F8442005E0B0F84420A4
:10237000C2F30E02A0F8442070471AB183890B43C0
:10238000838102E083898B43838170478182704718
:1023900041EA0203A0F8483070471AB183890B4321
:1023A000838102E083898B438381704701894FF6E3
:1023B000F8721140018170470A46002101894FF6E9
:1023C0008F73194011430181704730B504460D46A3
:1023D00029462046FFF7F0FF208940F007002081C2
:1023E00030BD2DE9F04104460D4616461F46602DCE
:1023F00006D13B46012231462046FFF75AFE05E052
:102400003B46012231462046FFF79DFE29462046E5
:10241000FFF7D2FF208940F007002081BDE8F0815E
:1024200030B50C4600210189C9B24FF6FF7505EAA7
:102430000325154325432943018130BD2DE9F04192
:1024400005460E4617469846002443463A4631460E
:102450002846FFF7E5FF2C894FF6F870044044F05A
:1024600007044FF68F70044044F070042C81BDE8DF
:10247000F081F0B504460D4616461F463B463246EF
:1024800029462046FFF7CCFF208940F48040208178
:10249000F0BD0185828270470A46002101884FF60F
:1024A0008F731940114301807047F0B50C461546F3
:1024B0001E460021002200230189028B038C4FF667
:1024C000F877394021434FF6FC473A4040F2011774
:1024D0003A434FF6DD773B404FF6FF7707EA0617A2
:1024E0002F433B43018102830384F0BD0A46002150
:1024F000018B4FF68F7319401143018370470A46D1
:102500000021018B48F6FF7319404FF6FF7303EA71
:1025100002231943018370470A460021818B4FF63D
:102520008F7319401143818370470A460021818BC4
:1025300048F6FF7319404FF6FF7303EA022319436D
:102540008183704721B1028842F08002028004E05A
:1025500002884FF67F731A400280704721B182884B
:1025600042F00402828004E082884FF6FB731A4036
:102570008280704721B1828842F00802828004E0A4
:1025800082884FF6F7731A408280704721B18288A3
:1025900042F00102828004E082884FF6FE731A4006
:1025A000828070470A460021018B4FF6F77319406D
:1025B0001143018370470A460021018B4FF2FF73DC
:1025C00019404FF6FF7303EA022319430183704752
:1025D0000A460021818B4FF6F7731940114381831E
:1025E00070470A460021818B4FF2FF7319404FF666
:1025F000FF7303EA02231943818370470A460021CF
:10260000018B4FF6FB7319401143018370470A4653
:102610000021018B4FF6FF3319404FF6FF7303EA99
:1026200002231943018370470A460021818B4FF62C
:10263000FB7319401143818370470A460021818B47
:102640004FF6FF3319404FF6FF7303EA0223194395
:10265000818370470A460021018B4FF67F73194032
:102660001143018370470A460021018BC1F30E011B
:102670004FF6FF7303EA02231943018370470A46AA
:102680000021818B4FF67F7319401143818370477E
:102690000A460021818BC1F30E014FF6FF7303EA56
:1026A00002231943818370470A460021018C4FF6AB
:1026B000FD7319401143018470470A460021018CC3
:1026C0004FF6F77319401143018470470A46002101
:1026D000018C4FF6DF7319404FF6FF7303EA0213C4
:1026E0001943018470470A460021018C4FF67F731D
:1026F00019404FF6FF7303EA021319430184704730
:102700000A460021018C4FF6FF5319404FF6FF7324
:1027100003EA02231943018470470A460021018C11
:102720004FF2FF7319404FF6FF7303EA0223194378
:10273000018470470A460021018C4DF6FF73194051
:102740004FF6FF7303EA023319430184704730B533
:10275000002301248C40A3B2048C9C430484048C89
:1027600002FA01F5ADB22C43048430BD30B500232C
:1027700004248C40A3B2048C9C430484048C02FA8D
:1027800001F5ADB22C43048430BD70B50346002082
:1027900000241846183001258D40ACB21D8CA5438D
:1027A0001D8409B1082909D100EB6100056825F0F5
:1027B000700505600568154305600EE00D1FC5F343
:1027C0004E052844056825F4E045056005684FF688
:1027D000FF7606EA02263543056070BD21B1028806
:1027E00042F00202028004E002884FF6FD731A40B4
:1027F0000280704721B1028842F00402028004E0A6
:1028000002884FF6FB731A400280704721B182881C
:1028100042F08002828004E082884FF67F731A4083
:102820008280704702884FF6F7731A400280028850
:102830000A430280704782884FF68F731A40828065
:1028400082880A438280704702894FF6F8731A40E3
:10285000028102890A430281704702894FF67F7321
:102860001A40028102890A430281704781847047BD
:1028700081857047818670470187704781877047DF
:10288000A0F84010704702884FF6FF431A400280BC
:1028900002880A43028070470146888E70470146CD
:1028A000088F70470146888F70470146B1F8400095
:1028B00070470146888C70470146088D7047024674
:1028C0000020138A0B400BB1012000E0002070476C
:1028D000CA430282704730B502460020002300241C
:1028E000158A05EA0103958905EA010413B10CB1C3
:1028F000012000E0002030BDCA4302827047000082
:1029000010B50446FB48844209D101218803FFF732
:102910009FF800214FF48040FFF79AF832E0F64824
:10292000844209D101214804FFF79FF800214FF4A8
:102930000030FFF79AF825E0F048844209D10121E0
:102940008804FFF792F800214FF48020FFF78DF8FC
:1029500018E0EB48844209D10121C804FFF785F84B
:1029600000214FF40020FFF780F80BE0E548844297
:1029700008D101210805FFF778F800214FF48010F5
:10298000FFF773F810BD2DE9F04786B005460E46F7
:102990000024A24600BFA1460027B08900B100BFB5
:1029A0002F462C8A4CF6FF700440F08804432C829A
:1029B000AC894EF6F3100440B08831890843718920
:1029C00008430443AC81AC8A4FF6FF400440B08911
:1029D0000443AC8201A8FEF7B4FFC648874202D187
:1029E000DDF810A001E0DDF80CA0A88900F400409B
:1029F00040B10AEBCA0000EB0A1031684900B0FB95
:102A0000F1F807E00AEBCA0000EB0A103168890010
:102A1000B0FBF1F86420B8FBF0F004012009642158
:102A200001FB1089A88900F4004040B1322000EB7E
:102A3000C900B0FBF1F000F00700044308E03220C9
:102A400000EB09106421B0FBF1F000F00F0004432B
:102A50002C8106B0BDE8F0874FF4165101600021CB
:102A60008180C18001810C214181002181817047D9
:102A700010B502460020108A4FF2FF0318400B8861
:102A80004C8823438C882343CC88234318431082EB
:102A900010BD0021018041808180C180704721B13B
:102AA000828942F40052828104E082894DF6FF73EC
:102AB0001A4082817047F0B50346002400260025A5
:102AC000002040F66A17B94200D100BF1846C1F392
:102AD000421401F01F06012707FA06F5012C01D167
:102AE0000C3004E0022C01D1103000E014301AB197
:102AF00007682F43076002E00768AF430760F0BD37
:102B00001AB1838A0B43838202E0838A8B438382D8
:102B10007047028A4FF6F0731A400282028A0A4313
:102B20000282704782894FF2FF731A408281828944
:102B30000A438281704721B1828942F00202828178
:102B400004E082894FF6FD731A4082817047028A41
:102B50004FF6DF731A400282028A0A4302827047EC
:102B600021B1028A42F48042028204E0028A4BF6DA
:102B7000FF731A4002827047C1F3080282807047D7
:102B800001468888C0F308007047818941F001013F
:102B900081817047028BD2B20283028B42EA01220A
:102BA00002837047028B02F47F420283028B0A4346
:102BB0000283704721B1828A42F02002828204E0BF
:102BC000828A4FF6DF731A408282704721B1828A6F
:102BD00042F01002828204E0828A4FF6EF731A40BC
:102BE0008282704721B1828A42F00802828204E028
:102BF000828A4FF6F7731A408282704721B1828928
:102C000042F40042828103E08289C2F30E02828193
:102C1000704721B1828A42F40062828204E0828A93
:102C20004FF2FF731A4082827047828A4FF6FB731D
:102C30001A408282828A0A438282704721B1828A44
:102C400042F00202828204E0828A4FF6FD731A404B
:102C50008282704702460020B1F5007F00D100BF9C
:102C600013880B400BB1012000E00020704701F4F5
:102C70000072B2F5007F00D100BFCA4302807047E6
:102C800070B50246002400230025002040F66A1695
:102C9000B14200D100BFC1F3421501F01F0301266C
:102CA00006FA03F3012D02D19689334006E0022D86
:102CB00002D1168A334001E0968A33400C12012675
:102CC00006FA04F41688344013B10CB1012000E078
:102CD000002070BD10B50022002340F66A14A14206
:102CE00000D100BF0A1201249440A3B2DC43048047
:102CF00010BD000000380140004400400048004082
:102D0000004C004000500040704700000FB40449E0
:102D100010B503AA029800F07DF810BC5DF814FB12
:102D2000340000202DE9F0410E46044600202062C8
:102D30002046E168884730B3252805D0D4E9012131
:102D40009047206A401CF2E7E16820460027884748
:102D5000050018D0A5F14100192802D820354FF4FC
:102D600000673246294620462760FDF71BFA40B12E
:102D7000012804D0F61D26F007060836D8E7361DD0
:102D8000D6E72846DAE7206ABDE8F08170B50C4640
:102D90000546012A05D02878800600D5EA69002377
:102DA00002E0012305E05B1C934202D2E05C0028B4
:102DB000F9D1A869E618C01AA861286A18442862DF
:102DC0002846AFF3008004E0D5E9012114F8010B97
:102DD0009047B442F8D32846AFF3008070BD7047E7
:102DE00070477047704710B5436913B1AFF3008067
:102DF00001E0FFF7CBFF012010BD127800F12401A4
:102E00000A7000224A700122EDE711684FF0FF328C
:102E1000E9E70000074B70B50D467B4400F011F860
:102E20000446284600F020F810B14FF0FF3070BD86
:102E3000204670BD03E2FFFF01694A1C0261087869
:102E4000704700B58FB0CDE90131002105910549EA
:102E50007944CDE9031011466846FFF763FF0FB0D0
:102E600000BD0000E5FFFFFF007B00F08000704721
:102E7000754600F02BF8AE4605006946534620F033
:102E80000700854618B020B5FEF72CFABDE82040B3
:102E90004FF000064FF000074FF000084FF0000B16
:102EA00021F00701AC46ACE8C009ACE8C009ACE8C9
:102EB000C009ACE8C0098D46704710B50446AFF3B1
:102EC00000802046BDE81040FDF77EB900487047FD
:102ED000E801002090EA010F48BF81F0004100F1B5
:102EE0006281421A3CBF801A89184FEAD0524FF0D3
:102EF0007F4C1CEA410FA2EBD15318BF9CEA026F32
:102F000000F03B804FF0004C4CEA00204CEA0121DD
:102F100021FA03FC10EB0C0C1ED202F1FF325FEA27
:102F20001C2040EBC25038BF70471CF07F0F4FEAA7
:102F3000400C18BFBCF17F4F38BF7047C3F120036E
:102F4000994008BF20F00100BCF17F4F38BF7047A7
:102F5000A0F1C04000F01BB94FEA3C00000A40EB72
:102F6000C25028BF1CF0FF0F4FEA400CE6D018BF3C
:102F7000BCF17F4F38BF7047EAE79CEA026F05D08B
:102F800010EA5C0F08BF00F00040704710B500F079
:102F9000B8F800BF64FBBE3E41000B0ED3F19E02A9
:102FA00008D950F400034FEA032323FA02F048BF84
:102FB0004042704710B500F0A4F800BF4992248049
:102FC000002070476FF0004282EA20007047000046
:102FD00010F0004148BF4042B0FA80F310FA03F20B
:102FE000C3F19D030BD051EAC35101EB12205306EC
:102FF00038BF704700F1010008BF20F001007047A2
:103000004FF47F0C1CEAD0121EBF1CEAD11392EAC7
:103010000C0F93EA0C0F00F0478090EA010F48BFB5
:1030200042F480724FF0004C4CEA00204CEA01213F
:1030300002EB0302A0FB0113A2F50002002918BF56
:1030400043F001035B0028BF4FEA330342EB224207
:103050005FEA132C4CEBC2502EBFBCEB436FB2F5B2
:103060007C0F70474FEA036CBCF1004F08BF20F0A3
:103070000100B2F57C0F38BF70470BD582F0FF021C
:1030800012F5803FC8BF704700F1C040D8BF00F0C4
:103090000040704700F5000C5FEA4C0C48BF7047D9
:1030A000B0F1C04000F073B890EA010F0CEAD11300
:1030B00048BF42F48072624538BF634504D280EA5B
:1030C000010000F00040704710B500F01AF800BF92
:1030D0008900013E00F007B800F009B85FEA410C32
:1030E0005FEA1C6C08D080EA010000F050B85FEA8B
:1030F000400C5FEA1C6CF6D14FF00040A0F5800058
:1031000070470EF1020E2EF0030E5EF8044B2442BF
:1031100004D44FEA4102B2F17F4F11D84FEA400385
:10312000B3F17F4F0CD80ED14FEAD07CB2F17F4F74
:103130000CEB4C0C0CF1020C08BF4CEBD17C04E006
:103140004FF0080C01E04FEAD17C0CEB4C0324FA61
:1031500003F404F00704B4F1040C06D20EEB840C63
:10316000BDE810404CF0010C6047DFE80CF00708A8
:1031700002024FF00040A0F5800010BD084642005A
:1031800018BFD2F1807288BF00F0004010BDFF214F
:1031900041EAD050C005704790EA010F48BF81F066
:1031A00000413FF59EAE421A04D882F00042A0EBE7
:1031B000020011444FEAD0524FF07F4C1CEA410FFD
:1031C000A2EBD15318BF9CEA026F4AD04FF0004CDB
:1031D0004CEA00204CEA012121FA03FCB0EB0C0C74
:1031E0000FD412F0FE0F36D05FEA4C001DD500124E
:1031F00040EBC25038BF70471CF03F0F18BF7047FC
:103200000BE0A2F101025FEA1C2040EBC25038BF84
:1032100070471CF07F0F18BF7047C3F1200399401F
:1032200014BF401E20F00100704780084FEA1223AF
:1032300008BF7047B0FA80FCA2EB0C02CCF1280C5E
:1032400060FA0CF093EA122F04BF00EBC2507047F3
:103250004FEAC3707047130A5FEADC1008BF70477B
:10326000F6E79CEA026F04D010EA5C0F08BF00206A
:10327000704710B5FFF745FF40DFF63E81F0004094
:1032800070470000A4320008000000205000000039
:103290006C010008F432000850000020F80700001C
:1032A0008801000800A24A0400000000000000009D
:1032B00001020304060708090100000000000000E5
:1032C000510100001801000000000000780000001B
:1032D00000000000000000000000000000000000EE
:1032E00000000000010203040102030406070809AC
:0432F00002040608C6
:0400000508000131BD
:00000001FF
